:100000000040002059010000B5010000B5010000CA
:1000100000000000000000000000000000000000E0
:10002000000000000000000000000000B50100001A
:100030000000000000000000B5010000B501000054
:10004000B5010000B5010000B5010000B5010000D8
:10005000B5010000B5010000B5010000B5010000C8
:10006000B5010000B5010000B5010000B5010000B8
:10007000B5010000B5010000B5010000B5010000A8
:10008000B5010000B5010000B5010000B501000098
:10009000B5010000B5010000B5010000B501000088
:1000A000B5010000B5010000B5010000B501000078
:1000B00080B582B000AF224B1B681A68204B1B68CA
:1000C00020490A401A601E4B1A681D4B1B681268B3
:1000D0001A601D4B1B681A681B4B1B681B490A40A2
:1000E0001A60194B1B681A68174B1B68C02149001E
:1000F0000A431A60164B1B681A68154B1B680421CB
:100100000A431A6000237B6002E07B6801337B6056
:100110007B68104A9342F8DD0D4B1B681A680C4B44
:100120001B6804218A431A6000233B6002E03B689D
:1001300001333B603B68074A9342F8DDDAE7C0468B
:1001400000000020FFF0FFFF040000203FFEFFFF43
:10015000080000209F86010080B582B000AF104BE0
:100160007B60104B3B6007E07A68131D7B603B6847
:10017000191D396012681A603A680B4B9A42F3D322
:100180000A4B3B6004E03B681A1D3A6000221A608B
:100190003A68074B9A42F6D3FFF78AFFC046FDE75D
:1001A000BC010000000000200C0000200C0000201A
:0C01B0000C00002080B500AFC046FDE749
:0C01BC000400024008010440000104405F
:04000003000001599F
:00000001FF
